:020000040000FA
:060000000A128A110C280F
:10000800FE00030EF0000A08F1000A128A110E2BF6
:100018000A128A110F28F901FA01FB01831203134E
:10002800AA01AB01AC01AD01AE0183010A128A112C
:100038001D280A128A11A0220A128A110A128A118C
:1000480013220A128A110A128A1101230A128A112A
:10005800F601F60A01300A128A11BB210A128A1126
:1000680009300A128A115A220A128A1111300A1208
:100078008A115A220A128A110D300A128A115A223A
:100088000A128A1111300A128A115A220A128A1186
:1000980001300A128A115A220A128A1111300A12E0
:1000A8008A115A220A128A1105300A128A115A2212
:1000B8000A128A11F601F60A02300A128A11BB21C5
:1000C8000A128A11FF300A128A1154210A128A115F
:1000D8007B080A128A1183220A128A117A080A12E4
:1000E8008A1183220A128A1179080A128A11832234
:1000F8000A128A1111300A128A115A220A128A1116
:1001080028300A128A1154210A128A117B080A120D
:100118008A1183220A128A117A080A128A11832202
:100128000A128A1179080A128A1183220A128A117C
:1001380011300A128A115A220A128A1150300A12F0
:100148008A1154210A128A117B080A128A11832201
:100158000A128A117A080A128A1183220A128A114B
:1001680079080A128A1183220A128A1111300A1296
:100178008A115A220A128A110A300A128A11542143
:100188000A128A117B080A128A1183220A128A111A
:100198007A080A128A1183220A128A1179080A1225
:1001A8008A1183220A128A11153083120313A900B7
:1001B8004B30A800BD30A700A70BE028A80BE0280B
:1001C800A90BE028E72827280A128A110C2883128D
:1001D8000313A101F31FF128F228F928F209F30902
:1001E800F20A0319F30AA101A10AF51FFC28FD2848
:1001F8000629F409F509F40A0319F50A0130F6008D
:100208007608A106A201A3017208730403190D2937
:100218000E294529A001A00A1C2901300310F20D5E
:10022800F30DFF3E031D12290130F6007608A007E2
:10023800F31F1F292029112901300310A20DA30D36
:10024800FF3E031D212973087502031D2D2972081D
:100258007402031C3029312938297208F402730802
:10026800031CF503F502221401300310F30CF20C01
:10027800FF3E031D39290130A002031D44294529E9
:1002880020292108031949294A294F29A209A30924
:10029800A20A0319A30A2308F3002208F20008009F
:1002A800F700770883120313A4002408F8006430C9
:1002B800F2000030F3007808A400A5012408F40037
:1002C8002508F5000A128A11EB200A128A11720811
:1002D80083120313A6002608FB009C30A400240800
:1002E800F2007B080A128A11EC220A128A11780796
:1002F80083120313A5002508F8000A30F200003025
:10030800F3007808A400A5012408F4002508F500E6
:100318000A128A11EB200A128A1172088312031337
:10032800A6002608FA00F630A4002408F2007A088D
:100338000A128A11EC220A128A117807831203130F
:10034800A5002508F8007808A4002408F9007B080F
:10035800303EA4002408FB007A08303EA40024089C
:10036800FA007908303EA4002408F9000800831236
:100378000313A0002003031DC229C329E829760816
:100388007F3EF7007708A3002308F7000430031026
:10039800F70CFF3E031DCB297708F8007808A10069
:1003A80023080F39F7007708A20021080A128A11DA
:1003B800BA220A128A118312031322080A128A1116
:1003C800BA220A128A11122A02302006031DED29C8
:1003D800EE29122A7608BF3EF7007708A300230803
:1003E800F70004300310F70CFF3E031DF6297708C9
:1003F800F8007808A1002308F039F7007708A20070
:1004080021080A128A11BA220A128A1183120313C6
:1004180022080A128A11BA220A128A110800003028
:100428000A128A1117230A128A111A30F700F830B3
:10043800F600F60B1D2AF70B1D2A000030300A12B1
:100448008A11BA220A128A110730F7007D30F600A5
:10045800F60B2C2AF70B2C2A30300A128A11BA22F2
:100468000A128A114230F600F60B382A00003030A2
:100478000A128A11BA220A128A113C300A128A1107
:10048800BA220A128A1108300A128A11BA220A12EA
:100498008A1101300A128A11BA220A128A11063008
:1004A8000A128A11BA220A128A1108008312031347
:1004B800A200A001A101752A2008220784000A12BF
:1004C8008A11D4220A128A110A128A1183220A1264
:1004D8008A11013083120313A0070318A10A003000
:1004E800A1072008220784000A128A11D4220A12BE
:1004F8008A11003A031D812A822A602A0800F40022
:100508007408F3007308F5007508F3007308F60023
:1005180083120313091476080A128A1117230A1280
:100528008A118312031389140D30F300F30B9A2AEE
:100538008312031389100800831603130F178F16ED
:100548000F160F14831603178901880183160313E6
:100558008501860180308700880189018312031391
:10056800850186018701880189010800F500831249
:100578000313091075080A128A1117230A128A111F
:100588008312031389140630F4003030F300F30BA0
:10059800CB2AF40BCB2A000083120313891008001E
:1005A80002308A000408840A820700344F34503429
:1005B800313400344F34503432340034533431340D
:1005C8003A340034533432343A340034203400346A
:1005D800F500F401751CF12AF22AF62A7208F300D4
:1005E8007308F4070310F20D0310F50C7508031DCA
:1005F800FE2AFF2AEE2A7408080000300A128A111F
:10060800BA220A128A1101300A128A11BA220A126F
:100618008A1108008B138B1771088A00700E8300EB
:10062800FE0E7E0E0900F200720883120313880082
:020638000800B8
:04400E00D420FF3F7C
:00000001FF
