:020000040000FA
:060000000A128A110C280F
:10000800FE00030EF0000A08F1000A128A11B62B4E
:100018000A128A110F28FA01FB0183120313AF0198
:1000280083010A128A1118280A128A11B1220A12A7
:100038008A11FF300A128A116A210A128A11F601FE
:10004800F60A02300A128A11CD210A128A117B0897
:100058000A128A114D230A128A11023083120313DD
:10006800AE002E08F60002300A128A11CD210A12BB
:100078008A117A080A128A114D230A128A1103304A
:1000880083120313AE002E08F60002300A128A11FA
:10009800CD210A128A11831203132F080A128A111A
:1000A8004D230A128A1128300A128A116A210A126B
:1000B8008A11073083120313AE002E08F6000230AF
:1000C8000A128A11CD210A128A117B080A128A1192
:1000D8004D230A128A11083083120313AE002E082A
:1000E800F60002300A128A11CD210A128A117A0802
:1000F8000A128A114D230A128A1109308312031336
:10010800AE002E08F60002300A128A11CD210A121A
:100118008A11831203132F080A128A114D230A1217
:100128008A111D280A128A110C2883120313A101AF
:10013800F31F9F28A028A728F209F309F20A031938
:10014800F30AA101A10AF51FAA28AB28B428F409CB
:10015800F509F40A0319F50A0130F6007608A10634
:10016800A201A301720873040319BB28BC28F32851
:10017800A001A00ACA2801300310F20DF30DFF3EBA
:10018800031DC0280130F6007608A007F31FCD280C
:10019800CE28BF2801300310A20DA30DFF3E031D7A
:1001A800CF2873087502031DDB2872087402031C2C
:1001B800DE28DF28E6287208F4027308031CF5031A
:1001C800F502221401300310F30CF20CFF3E031D5C
:1001D800E7280130A002031DF228F328CE282108C1
:1001E8000319F728F828FD28A209A309A20A031968
:1001F800A30A2308F3002208F20008000030831243
:100208000313A4000030A3000030A2000030A100B6
:1002180075087404730472040319132914296129D5
:10022800A501A50A24290130A0000310F20DF30D41
:10023800F40DF50DA00B19290130A0002008A50721
:10024800F51F2729282917290130A0000310A10D1F
:10025800A20DA30DA40DA00B2A2975087902031D70
:100268003F2974087802031D3F2973087702031D8C
:100278003F2972087602031C422943295229720831
:10028800F6027308031C730FF7027408031C740F3B
:10029800F8027508031C750FF902211401300310C8
:1002A800F50CF40CF30CF20CFF3E031D532901303E
:1002B800A502031D6029612928292408F5002308BF
:1002C800F4002208F3002108F20008008312031347
:1002D800A4002408F7007708A5006430F200003075
:1002E800F3002508F700F8017708F4007808F5000E
:1002F8000A128A1199200A128A117208F9007908DB
:10030800FB009C30F7007708F2007B080A128A117C
:1003180084230A128A11831203132507F800780828
:10032800A5000A30F2000030F3002508F700F801B4
:100338007708F4007808F5000A128A1199200A1241
:100348008A117208F9007908FA00F630F700770880
:10035800F2007A080A128A1184230A128A11831277
:1003680003132507F8007808A5002508F700770883
:10037800AF007B08303EF7007708FB007A08303E74
:10038800F7007708FA002F08303EF7007708AF002B
:10039800080083120313A0002003031DD429D529C4
:1003A800FA2976087F3EF7007708A3002308F700AC
:1003B80004300310F70CFF3E031DDD297708F80011
:1003C8007808A10023080F39F7007708A200210850
:1003D8000A128A116A230A128A1183120313220845
:1003E8000A128A116A230A128A11242A0230200664
:1003F800031DFF29002A242A7608BF3EF700770844
:10040800A3002308F70004300310F70CFF3E031D78
:10041800082A7708F8007808A1002308F039F700BF
:100428007708A20021080A128A116A230A128A117F
:100438008312031322080A128A116A230A128A11E4
:10044800080000300A128A11BF230A128A111A30D2
:10045800F700F830F600F60B2F2AF70B2F2A0000CA
:1004680030300A128A116A230A128A110730F700FB
:100478007D30F600F60B3E2AF70B3E2A30300A1282
:100488008A116A230A128A114230F600F60B4A2AA8
:10049800000030300A128A116A230A128A113C308D
:1004A8000A128A116A230A128A1108300A128A115A
:1004B8006A230A128A1101300A128A116A230A125F
:1004C8008A1106300A128A116A230A128A11080050
:1004D800033083120313A4002408F60001300A1223
:1004E8008A11CD210A128A1105300A128A1128238D
:1004F8000A128A11F601F60A02300A128A11CD216F
:100508000A128A1101300A128A1128230A128A1142
:10051800083083120313A4002408F60001300A12DD
:100528008A11CD210A128A1108300A128A11282349
:100538000A128A11073083120313A4002408F60054
:1005480002300A128A11CD210A128A1101300A12C8
:100558008A1128230A128A110800831603130F1719
:100568008F160F160F148316031789018801831637
:10057800031385018601870188018901831203130A
:10058800850186018701880189010A128A112522BD
:100598000A128A110A128A11A9230A128A11F6016B
:1005A800F60A01300A128A11CD210A128A110A129A
:1005B8008A116C220A128A11003083120313A900CF
:1005C8000130A8008630A700A030A6000A128A11C0
:1005D800F0220A128A1108002830831203139400AB
:1005E800831603139101831203132608AA00270810
:1005F800AB002808AC002908AD0002300310AA0D92
:10060800AB0DAC0DAD0DFF3E031D022B2D08F50003
:100618002C08F4002B08F3002A08F2000030F90037
:100628007A30F8001230F7000030F6000A128A110A
:1006380002210A128A117208FF3E831603139300DF
:100648009401871507160800F900F701F8013F2BF8
:100658007708790784000A128A1199230A128A11E5
:100668000A128A114D230A128A110130F70703185A
:10067800F80A0030F8077708790784000A128A1107
:1006880099230A128A11003A031D4B2B4C2B2C2B51
:100698000800F4007408F3007308F5007508F30007
:1006A8007308F60083120313091476080A128A11D4
:1006B800BF230A128A118312031389140D30F30021
:1006C800F30B642B8312031389100800F5008312BF
:1006D8000313091075080A128A11BF230A128A1116
:1006E8008312031389140630F4003030F300F30B3F
:1006F8007B2BF40B7B2B000083120313891008005B
:10070800F500F401751C892B8A2B8E2B7208F300D7
:100718007308F4070310F20D0310F50C7508031D98
:10072800962B972B862B7408080003308A00040840
:10073800840A82070034303430343034003453347F
:100748003134003453343234003400300A128A1100
:100758006A230A128A1101300A128A116A230A12BC
:100768008A1108008B138B1771088A00700E83009A
:10077800FE0E7E0E0900F200720883120313880031
:02078800080067
:04400E00D420FF3F7C
:00000001FF
