:020000040000FA
:060000000A128A110C280F
:10000800FE00030EF0000A08F1000A128A11AB2A5A
:100018000A128A110F28F901FA01FB0183010A1259
:100028008A1116280A128A115F220A128A110A12E4
:100038008A11B8210A128A110A128A119E220A12FA
:100048008A11F601F60A01300A128A1160210A1291
:100058008A1101300A128A11FF210A128A11093005
:100068000A128A11FF210A128A1105300A128A110E
:10007800FF210A128A11F601F60A02300A128A11C1
:1000880060210A128A11FF300A128A11F9200A1215
:100098008A117B080A128A1128220A128A117A0800
:1000A8000A128A1128220A128A1179080A128A1158
:1000B80028220A128A1109300A128A11FF210A120B
:1000C8008A1128300A128A11F9200A128A117B082B
:1000D8000A128A1128220A128A117A080A128A1127
:1000E80028220A128A1179080A128A1128220A1269
:1000F8008A11153083120313A9004B30A800BD30B4
:10010800A700A70B8528A80B8528A90B85288C286C
:1001180020280A128A110C2883120313A101F31F45
:10012800962897289E28F209F309F20A0319F30A78
:10013800A101A10AF51FA128A228AB28F409F509F5
:10014800F40A0319F50A0130F6007608A106A2019F
:10015800A301720873040319B228B328EA28A0017E
:10016800A00AC12801300310F20DF30DFF3E031D54
:10017800B7280130F6007608A007F31FC428C52861
:10018800B62801300310A20DA30DFF3E031DC6289B
:1001980073087502031DD22872087402031CD5283F
:1001A800D628DD287208F4027308031CF503F5024B
:1001B800221401300310F30CF20CFF3E031DDE285D
:1001C8000130A002031DE928EA28C52821080319DF
:1001D800EE28EF28F428A209A309A20A0319A30A02
:1001E8002308F3002208F2000800F70077088312BA
:1001F8000313A4002408F8006430F2000030F30070
:100208007808A400A5012408F4002508F5000A12BE
:100218008A1190200A128A11720883120313A60009
:100228002608FB009C30A4002408F2007B080A1270
:100238008A1178220A128A11780783120313A500FB
:100248002508F8000A30F2000030F3007808A4000E
:10025800A5012408F4002508F5000A128A11902047
:100268000A128A11720883120313A6002608FA00DC
:10027800F630A4002408F2007A080A128A117822BB
:100288000A128A11780783120313A5002508F800BB
:100298007808A4002408F9007B08303EA40024084C
:1002A800FB007A08303EA4002408FA007908303EA2
:1002B800A4002408F900080083120313A0002003F7
:1002C800031D672968298D2976087F3EF70077087E
:1002D800A3002308F70004300310F70CFF3E031DAA
:1002E80070297708F8007808A10023080F39F7006B
:1002F8007708A20021080A128A1145220A128A11D7
:100308008312031322080A128A1145220A128A113B
:10031800B72902302006031D92299329B7297608A8
:10032800BF3EF7007708A3002308F7000430031046
:10033800F70CFF3E031D9B297708F8007808A100F9
:100348002308F039F7007708A20021080A128A1159
:1003580045220A128A118312031322080A128A11EB
:1003680045220A128A11080000300A128A11B422A2
:100378000A128A111A30F700F830F600F60BC22973
:10038800F70BC229000030300A128A1145220A12DE
:100398008A110730F7007D30F600F60BD129F70BEC
:1003A800D12930300A128A1145220A128A114230A4
:1003B800F600F60BDD29000030300A128A114522BA
:1003C8000A128A113C300A128A1145220A128A112D
:1003D80008300A128A1145220A128A1101300A12BB
:1003E8008A1145220A128A1106300A128A114522F8
:1003F8000A128A11080083120313A200A001A101A6
:100408001A2A2008220784000A128A118D220A1249
:100418008A110A128A1128220A128A1101308312BB
:100428000313A0070318A10A0030A1072008220718
:1004380084000A128A118D220A128A11003A031DB9
:10044800262A272A052A0800F4007408F3007308EE
:10045800F5007508F3007308F600831203130914F6
:1004680076080A128A11B4220A128A118312031317
:1004780089140D30F300F30B3F2A831203138910FC
:100488000800F50083120313091075080A128A116F
:10049800B4220A128A118312031389140630F40055
:1004A8003030F300F30B562AF40B562A000083125F
:1004B800031389100800831603130F178F160F16DE
:1004C8000F14831603178901880183160313850106
:1004D800860187018801890183120313850186013A
:1004E8008701880189010800F500F401751C7D2A3F
:1004F8007E2A822A7208F3007308F4070310F20DAB
:100508000310F50C7508031D8A2A8B2A7A2A7408A9
:10051800080002308A000408840A82070034533431
:1005280031343A340034533432343A3400342034D9
:100538002034003400300A128A1145220A128A1126
:1005480001300A128A1145220A128A1108008B13F7
:100558008B1771088A00700E8300FE0E7E0E09004C
:0C056800F20072088312031388000800E0
:04400E00D420FF3F7C
:00000001FF
